{
  "contractName": "Payments",
  "abi": [
    {
      "inputs": [
        {
          "internalType": "address",
          "name": "registryAddress",
          "type": "address"
        }
      ],
      "stateMutability": "nonpayable",
      "type": "constructor"
    },
    {
      "anonymous": false,
      "inputs": [
        {
          "indexed": true,
          "internalType": "uint256",
          "name": "leaseId",
          "type": "uint256"
        },
        {
          "indexed": true,
          "internalType": "address",
          "name": "tenant",
          "type": "address"
        },
        {
          "indexed": false,
          "internalType": "uint256",
          "name": "periodStart",
          "type": "uint256"
        },
        {
          "indexed": false,
          "internalType": "uint256",
          "name": "periodEnd",
          "type": "uint256"
        },
        {
          "indexed": false,
          "internalType": "uint256",
          "name": "amountWei",
          "type": "uint256"
        },
        {
          "indexed": false,
          "internalType": "uint256",
          "name": "paidAt",
          "type": "uint256"
        }
      ],
      "name": "RentPaid",
      "type": "event"
    },
    {
      "inputs": [],
      "name": "owner",
      "outputs": [
        {
          "internalType": "address",
          "name": "",
          "type": "address"
        }
      ],
      "stateMutability": "view",
      "type": "function",
      "constant": true
    },
    {
      "inputs": [],
      "name": "registry",
      "outputs": [
        {
          "internalType": "contract ILeaseRegistry",
          "name": "",
          "type": "address"
        }
      ],
      "stateMutability": "view",
      "type": "function",
      "constant": true
    },
    {
      "inputs": [
        {
          "internalType": "address",
          "name": "registryAddress",
          "type": "address"
        }
      ],
      "name": "setRegistry",
      "outputs": [],
      "stateMutability": "nonpayable",
      "type": "function"
    },
    {
      "inputs": [
        {
          "internalType": "uint256",
          "name": "leaseId",
          "type": "uint256"
        },
        {
          "internalType": "uint256",
          "name": "periodStartUnix",
          "type": "uint256"
        },
        {
          "internalType": "uint256",
          "name": "periodEndUnix",
          "type": "uint256"
        },
        {
          "internalType": "uint256",
          "name": "expectedWei",
          "type": "uint256"
        }
      ],
      "name": "payRent",
      "outputs": [],
      "stateMutability": "payable",
      "type": "function",
      "payable": true
    },
    {
      "inputs": [
        {
          "internalType": "address payable",
          "name": "to",
          "type": "address"
        },
        {
          "internalType": "uint256",
          "name": "amountWei",
          "type": "uint256"
        }
      ],
      "name": "withdraw",
      "outputs": [],
      "stateMutability": "nonpayable",
      "type": "function"
    }
  ],
  "bytecode": "0x608060405234801561001057600080fd5b5060405161074438038061074483398101604081905261002f91610062565b60008054336001600160a01b031991821617909155600180549091166001600160a01b0392909216919091179055610092565b60006020828403121561007457600080fd5b81516001600160a01b038116811461008b57600080fd5b9392505050565b6106a3806100a16000396000f3fe60806040526004361061004a5760003560e01c80637b1039991461004f5780638da5cb5b1461008b578063a91ee0dc146100ab578063f3fef3a3146100cd578063f83bebf8146100ed575b600080fd5b34801561005b57600080fd5b5060015461006f906001600160a01b031681565b6040516001600160a01b03909116815260200160405180910390f35b34801561009757600080fd5b5060005461006f906001600160a01b031681565b3480156100b757600080fd5b506100cb6100c63660046105ce565b610100565b005b3480156100d957600080fd5b506100cb6100e83660046105f2565b6101bc565b6100cb6100fb36600461061e565b6102d4565b6000546001600160a01b031633146101505760405162461bcd60e51b815260206004820152600e60248201526d139bdd08185d5d1a1bdc9a5e995960921b60448201526064015b60405180910390fd5b6001600160a01b03811661019a5760405162461bcd60e51b81526020600482015260116024820152701c9959da5cdd1c9e481c995c5d5a5c9959607a1b6044820152606401610147565b600180546001600160a01b0319166001600160a01b0392909216919091179055565b6000546001600160a01b031633146102075760405162461bcd60e51b815260206004820152600e60248201526d139bdd08185d5d1a1bdc9a5e995960921b6044820152606401610147565b6001600160a01b0382166102525760405162461bcd60e51b81526020600482015260126024820152711c9958da5c1a595b9d081c995c5d5a5c995960721b6044820152606401610147565b478111156102995760405162461bcd60e51b8152602060048201526014602482015273696e73756666696369656e742062616c616e636560601b6044820152606401610147565b6040516001600160a01b0383169082156108fc029083906000818181858888f193505050501580156102cf573d6000803e3d6000fd5b505050565b60015460405163472969a960e01b81526004810186905285916001600160a01b03169063472969a990602401602060405180830381865afa15801561031d573d6000803e3d6000fd5b505050506040513d601f19601f820116820180604052508101906103419190610650565b6001600160a01b0316336001600160a01b0316146103925760405162461bcd60e51b815260206004820152600e60248201526d139bdd081d1a19481d195b985b9d60921b6044820152606401610147565b8383116103d25760405162461bcd60e51b815260206004820152600e60248201526d125b9d985b1a59081c195c9a5bd960921b6044820152606401610147565b8134146104135760405162461bcd60e51b815260206004820152600f60248201526e496e636f72726563742076616c756560881b6044820152606401610147565b600154604051635e0d139b60e01b8152600481018790526000916001600160a01b031690635e0d139b90602401602060405180830381865afa15801561045d573d6000803e3d6000fd5b505050506040513d601f19601f820116820180604052508101906104819190610650565b90506001600160a01b0381166104c95760405162461bcd60e51b815260206004820152600d60248201526c4f776e6572206d697373696e6760981b6044820152606401610147565b604080518681526020810186905234818301524260608201529051339188917f47dcb836ff0f3a37f44f97a139fa4daa4ccb35f72c6f92795df4cce574355b559181900360800190a36000816001600160a01b03163460405160006040518083038185875af1925050503d806000811461055f576040519150601f19603f3d011682016040523d82523d6000602084013e610564565b606091505b50509050806105ad5760405162461bcd60e51b815260206004820152601560248201527413dddb995c881d1c985b9cd9995c8819985a5b1959605a1b6044820152606401610147565b50505050505050565b6001600160a01b03811681146105cb57600080fd5b50565b6000602082840312156105e057600080fd5b81356105eb816105b6565b9392505050565b6000806040838503121561060557600080fd5b8235610610816105b6565b946020939093013593505050565b6000806000806080858703121561063457600080fd5b5050823594602084013594506040840135936060013592509050565b60006020828403121561066257600080fd5b81516105eb816105b656fea264697066735822122038185fa887d353fb27e41f77dbeb1223036c3e62dc4ffb5fbcdb23a2ad142c6764736f6c63430008180033",
  "immutableReferences": {},
  "source": "// SPDX-License-Identifier: MIT\npragma solidity ^0.8.24;\n\ninterface ILeaseRegistry {\n    function leaseTenant(uint256 leaseId) external view returns (address);\n    function leaseOwner(uint256 leaseId) external view returns (address);\n}\n\n/// @title Payments - Accepts rent in ETH from whitelisted tenants per lease.\ncontract Payments {\n    address public owner;\n    ILeaseRegistry public registry;\n\n    event RentPaid(\n        uint256 indexed leaseId,\n        address indexed tenant,\n        uint256 periodStart,\n        uint256 periodEnd,\n        uint256 amountWei,\n        uint256 paidAt\n    );\n\n    constructor(address registryAddress) {\n        owner = msg.sender;\n        registry = ILeaseRegistry(registryAddress);\n    }\n\n    modifier onlyOwner() {\n        require(msg.sender == owner, \"Not authorized\");\n        _;\n    }\n\n    modifier onlyTenant(uint256 leaseId) {\n        require(msg.sender == registry.leaseTenant(leaseId), \"Not the tenant\");\n        _;\n    }\n\n    function setRegistry(address registryAddress) external onlyOwner {\n        require(registryAddress != address(0), \"registry required\");\n        registry = ILeaseRegistry(registryAddress);\n    }\n\n    /// @notice Pay rent for a billing period. Validation for expected amount stays off-chain.\n    function payRent(\n        uint256 leaseId,\n        uint256 periodStartUnix,\n        uint256 periodEndUnix,\n        uint256 expectedWei\n    ) external payable onlyTenant(leaseId) {\n        require(periodEndUnix > periodStartUnix, \"Invalid period\");\n        require(msg.value == expectedWei, \"Incorrect value\");\n        address ownerWallet = registry.leaseOwner(leaseId);\n        require(ownerWallet != address(0), \"Owner missing\");\n\n        emit RentPaid(leaseId, msg.sender, periodStartUnix, periodEndUnix, msg.value, block.timestamp);\n\n        (bool sent, ) = payable(ownerWallet).call{value: msg.value}(\"\");\n        require(sent, \"Owner transfer failed\");\n    }\n\n    /// @notice Owner withdraws accumulated funds.\n    function withdraw(address payable to, uint256 amountWei) external onlyOwner {\n        require(to != address(0), \"recipient required\");\n        require(amountWei <= address(this).balance, \"insufficient balance\");\n        to.transfer(amountWei);\n    }\n}\n",
  "sourcePath": "/Users/csuftitan/RentalApp/rental-app/contracts/Payments.sol",
  "compiler": {
    "name": "solc",
    "version": "0.8.24+commit.e11b9ed9.Emscripten.clang"
  },
  "schemaVersion": "3.4.16",
  "updatedAt": "2025-11-11T06:15:19.106Z",
  "networkType": "ethereum",
  "devdoc": {
    "kind": "dev",
    "methods": {},
    "title": "Payments - Accepts rent in ETH from whitelisted tenants per lease.",
    "version": 1
  },
  "userdoc": {
    "kind": "user",
    "methods": {
      "payRent(uint256,uint256,uint256,uint256)": {
        "notice": "Pay rent for a billing period. Validation for expected amount stays off-chain."
      },
      "withdraw(address,uint256)": {
        "notice": "Owner withdraws accumulated funds."
      }
    },
    "version": 1
  }
}