{
  "contractName": "RENT",
  "abi": [
    {
      "anonymous": false,
      "inputs": [
        {
          "indexed": true,
          "internalType": "uint256",
          "name": "leaseId",
          "type": "uint256"
        },
        {
          "indexed": true,
          "internalType": "address",
          "name": "owner",
          "type": "address"
        },
        {
          "indexed": true,
          "internalType": "address",
          "name": "tenant",
          "type": "address"
        },
        {
          "indexed": false,
          "internalType": "uint256",
          "name": "rentWei",
          "type": "uint256"
        },
        {
          "indexed": false,
          "internalType": "uint256",
          "name": "startUnix",
          "type": "uint256"
        },
        {
          "indexed": false,
          "internalType": "uint256",
          "name": "endUnix",
          "type": "uint256"
        },
        {
          "indexed": false,
          "internalType": "bytes32",
          "name": "termsHash",
          "type": "bytes32"
        }
      ],
      "name": "AgreementCreated",
      "type": "event"
    },
    {
      "inputs": [
        {
          "internalType": "uint256",
          "name": "",
          "type": "uint256"
        }
      ],
      "name": "agreements",
      "outputs": [
        {
          "internalType": "address",
          "name": "owner",
          "type": "address"
        },
        {
          "internalType": "address",
          "name": "tenant",
          "type": "address"
        },
        {
          "internalType": "uint256",
          "name": "rentWei",
          "type": "uint256"
        },
        {
          "internalType": "uint256",
          "name": "startUnix",
          "type": "uint256"
        },
        {
          "internalType": "uint256",
          "name": "endUnix",
          "type": "uint256"
        },
        {
          "internalType": "bytes32",
          "name": "termsHash",
          "type": "bytes32"
        }
      ],
      "stateMutability": "view",
      "type": "function",
      "constant": true
    },
    {
      "inputs": [
        {
          "internalType": "uint256",
          "name": "",
          "type": "uint256"
        }
      ],
      "name": "leaseTenant",
      "outputs": [
        {
          "internalType": "address",
          "name": "",
          "type": "address"
        }
      ],
      "stateMutability": "view",
      "type": "function",
      "constant": true
    },
    {
      "inputs": [
        {
          "internalType": "uint256",
          "name": "leaseId",
          "type": "uint256"
        },
        {
          "internalType": "address",
          "name": "tenant",
          "type": "address"
        },
        {
          "internalType": "uint256",
          "name": "rentWei",
          "type": "uint256"
        },
        {
          "internalType": "uint256",
          "name": "startUnix",
          "type": "uint256"
        },
        {
          "internalType": "uint256",
          "name": "endUnix",
          "type": "uint256"
        },
        {
          "internalType": "bytes32",
          "name": "termsHash",
          "type": "bytes32"
        }
      ],
      "name": "createAgreement",
      "outputs": [],
      "stateMutability": "nonpayable",
      "type": "function"
    },
    {
      "inputs": [
        {
          "internalType": "uint256",
          "name": "leaseId",
          "type": "uint256"
        }
      ],
      "name": "leaseOwner",
      "outputs": [
        {
          "internalType": "address",
          "name": "",
          "type": "address"
        }
      ],
      "stateMutability": "view",
      "type": "function",
      "constant": true
    }
  ],
  "bytecode": "0x608060405234801561001057600080fd5b5061046c806100206000396000f3fe608060405234801561001057600080fd5b506004361061004c5760003560e01c80631974650c14610051578063472969a9146100665780635e0d139b146100ac578063bd14de96146100d5575b600080fd5b61006461005f3660046103c1565b61015d565b005b61008f61007436600461041d565b6001602052600090815260409020546001600160a01b031681565b6040516001600160a01b0390911681526020015b60405180910390f35b61008f6100ba36600461041d565b6000908152602081905260409020546001600160a01b031690565b6101256100e336600461041d565b6000602081905290815260409020805460018201546002830154600384015460048501546005909501546001600160a01b039485169593909416939192909186565b604080516001600160a01b039788168152969095166020870152938501929092526060840152608083015260a082015260c0016100a3565b6001600160a01b0385166101aa5760405162461bcd60e51b815260206004820152600f60248201526e15195b985b9d081c995c5d5a5c9959608a1b60448201526064015b60405180910390fd5b856000036101ed5760405162461bcd60e51b815260206004820152601060248201526f1319585cd95259081c995c5d5a5c995960821b60448201526064016101a1565b600086815260208190526040902080546001600160a01b0316156102425760405162461bcd60e51b815260206004820152600c60248201526b4c656173652065786973747360a01b60448201526064016101a1565b6040518060c00160405280336001600160a01b03168152602001876001600160a01b031681526020018681526020018581526020018481526020018381525060008089815260200190815260200160002060008201518160000160006101000a8154816001600160a01b0302191690836001600160a01b0316021790555060208201518160010160006101000a8154816001600160a01b0302191690836001600160a01b0316021790555060408201518160020155606082015181600301556080820151816004015560a08201518160050155905050856001600089815260200190815260200160002060006101000a8154816001600160a01b0302191690836001600160a01b03160217905550856001600160a01b0316336001600160a01b0316887f4e63dc67503ac07f0fe3509eb4752fedb7729c633b640abaa5839694ca5922cd888888886040516103b0949392919093845260208401929092526040830152606082015260800190565b60405180910390a450505050505050565b60008060008060008060c087890312156103da57600080fd5b8635955060208701356001600160a01b03811681146103f857600080fd5b95989597505050506040840135936060810135936080820135935060a0909101359150565b60006020828403121561042f57600080fd5b503591905056fea2646970667358221220134577bdf16cbe4a393dd3cb62066d7578485da95f2d9dd7b21186218639f06064736f6c63430008180033",
  "immutableReferences": {},
  "source": "// SPDX-License-Identifier: MIT\npragma solidity ^0.8.24;\n\n/// @title RENT - Simple lease registry storing tenant binding for on-chain enforcement.\ncontract RENT {\n    struct Agreement {\n        address owner;\n        address tenant;\n        uint256 rentWei;\n        uint256 startUnix;\n        uint256 endUnix;\n        bytes32 termsHash;\n    }\n\n    mapping(uint256 => Agreement) public agreements;\n    mapping(uint256 => address) public leaseTenant;\n\n    event AgreementCreated(\n        uint256 indexed leaseId,\n        address indexed owner,\n        address indexed tenant,\n        uint256 rentWei,\n        uint256 startUnix,\n        uint256 endUnix,\n        bytes32 termsHash\n    );\n\n    /// @notice Creates an agreement mapping a lease id to its tenant wallet.\n    /// @dev rent/terms hash are stored for auditing while calculations stay off-chain.\n    function createAgreement(\n        uint256 leaseId,\n        address tenant,\n        uint256 rentWei,\n        uint256 startUnix,\n        uint256 endUnix,\n        bytes32 termsHash\n    ) external {\n        require(tenant != address(0), \"Tenant required\");\n        require(leaseId != 0, \"LeaseId required\");\n        Agreement storage ag = agreements[leaseId];\n        require(ag.owner == address(0), \"Lease exists\");\n\n        agreements[leaseId] = Agreement({\n            owner: msg.sender,\n            tenant: tenant,\n            rentWei: rentWei,\n            startUnix: startUnix,\n            endUnix: endUnix,\n            termsHash: termsHash\n        });\n\n        leaseTenant[leaseId] = tenant;\n        emit AgreementCreated(leaseId, msg.sender, tenant, rentWei, startUnix, endUnix, termsHash);\n    }\n\n    /// @notice Returns the wallet that created the agreement for payout wiring.\n    function leaseOwner(uint256 leaseId) external view returns (address) {\n        return agreements[leaseId].owner;\n    }\n}\n",
  "sourcePath": "/Users/csuftitan/RentalApp/rental-app/contracts/RENT.sol",
  "compiler": {
    "name": "solc",
    "version": "0.8.24+commit.e11b9ed9.Emscripten.clang"
  },
  "schemaVersion": "3.4.16",
  "updatedAt": "2025-11-11T06:15:19.103Z",
  "networkType": "ethereum",
  "devdoc": {
    "kind": "dev",
    "methods": {
      "createAgreement(uint256,address,uint256,uint256,uint256,bytes32)": {
        "details": "rent/terms hash are stored for auditing while calculations stay off-chain."
      }
    },
    "title": "RENT - Simple lease registry storing tenant binding for on-chain enforcement.",
    "version": 1
  },
  "userdoc": {
    "kind": "user",
    "methods": {
      "createAgreement(uint256,address,uint256,uint256,uint256,bytes32)": {
        "notice": "Creates an agreement mapping a lease id to its tenant wallet."
      },
      "leaseOwner(uint256)": {
        "notice": "Returns the wallet that created the agreement for payout wiring."
      }
    },
    "version": 1
  }
}