{
  "contractName": "RENT",
  "abi": [
    {
      "anonymous": false,
      "inputs": [
        {
          "indexed": true,
          "internalType": "uint256",
          "name": "id",
          "type": "uint256"
        },
        {
          "indexed": false,
          "internalType": "uint256",
          "name": "amount",
          "type": "uint256"
        },
        {
          "indexed": false,
          "internalType": "uint256",
          "name": "time",
          "type": "uint256"
        }
      ],
      "name": "AnnualRentPaid",
      "type": "event"
    },
    {
      "anonymous": false,
      "inputs": [
        {
          "indexed": true,
          "internalType": "uint256",
          "name": "id",
          "type": "uint256"
        },
        {
          "indexed": false,
          "internalType": "uint256",
          "name": "amount",
          "type": "uint256"
        },
        {
          "indexed": false,
          "internalType": "uint256",
          "name": "time",
          "type": "uint256"
        }
      ],
      "name": "DepositPaid",
      "type": "event"
    },
    {
      "anonymous": false,
      "inputs": [
        {
          "indexed": true,
          "internalType": "uint256",
          "name": "id",
          "type": "uint256"
        },
        {
          "indexed": true,
          "internalType": "address",
          "name": "tenant",
          "type": "address"
        },
        {
          "indexed": true,
          "internalType": "address",
          "name": "owner",
          "type": "address"
        }
      ],
      "name": "LeaseCreated",
      "type": "event"
    },
    {
      "anonymous": false,
      "inputs": [
        {
          "indexed": true,
          "internalType": "uint256",
          "name": "id",
          "type": "uint256"
        },
        {
          "indexed": false,
          "internalType": "address",
          "name": "tenant",
          "type": "address"
        }
      ],
      "name": "LeaseSigned",
      "type": "event"
    },
    {
      "anonymous": false,
      "inputs": [
        {
          "indexed": true,
          "internalType": "uint256",
          "name": "id",
          "type": "uint256"
        },
        {
          "indexed": false,
          "internalType": "bytes32",
          "name": "reqId",
          "type": "bytes32"
        },
        {
          "indexed": false,
          "internalType": "string",
          "name": "title",
          "type": "string"
        },
        {
          "indexed": false,
          "internalType": "uint256",
          "name": "cost",
          "type": "uint256"
        }
      ],
      "name": "RepairRequested",
      "type": "event"
    },
    {
      "anonymous": false,
      "inputs": [
        {
          "indexed": true,
          "internalType": "uint256",
          "name": "id",
          "type": "uint256"
        },
        {
          "indexed": false,
          "internalType": "bytes32",
          "name": "reqId",
          "type": "bytes32"
        },
        {
          "indexed": false,
          "internalType": "string",
          "name": "status",
          "type": "string"
        }
      ],
      "name": "RepairUpdated",
      "type": "event"
    },
    {
      "inputs": [
        {
          "internalType": "uint256",
          "name": "",
          "type": "uint256"
        }
      ],
      "name": "leases",
      "outputs": [
        {
          "internalType": "uint256",
          "name": "id",
          "type": "uint256"
        },
        {
          "internalType": "address",
          "name": "owner",
          "type": "address"
        },
        {
          "internalType": "address",
          "name": "tenant",
          "type": "address"
        },
        {
          "internalType": "uint256",
          "name": "rentWei",
          "type": "uint256"
        },
        {
          "internalType": "uint256",
          "name": "depositWei",
          "type": "uint256"
        },
        {
          "internalType": "uint256",
          "name": "startUnix",
          "type": "uint256"
        },
        {
          "internalType": "uint256",
          "name": "endUnix",
          "type": "uint256"
        },
        {
          "internalType": "bool",
          "name": "active",
          "type": "bool"
        }
      ],
      "stateMutability": "view",
      "type": "function",
      "constant": true
    },
    {
      "inputs": [],
      "name": "nextLeaseId",
      "outputs": [
        {
          "internalType": "uint256",
          "name": "",
          "type": "uint256"
        }
      ],
      "stateMutability": "view",
      "type": "function",
      "constant": true
    },
    {
      "inputs": [
        {
          "internalType": "address",
          "name": "tenant",
          "type": "address"
        },
        {
          "internalType": "uint256",
          "name": "rentWei",
          "type": "uint256"
        },
        {
          "internalType": "uint256",
          "name": "depositWei",
          "type": "uint256"
        },
        {
          "internalType": "uint256",
          "name": "startUnix",
          "type": "uint256"
        },
        {
          "internalType": "uint256",
          "name": "endUnix",
          "type": "uint256"
        }
      ],
      "name": "createLease",
      "outputs": [
        {
          "internalType": "uint256",
          "name": "leaseId",
          "type": "uint256"
        }
      ],
      "stateMutability": "nonpayable",
      "type": "function"
    },
    {
      "inputs": [
        {
          "internalType": "uint256",
          "name": "leaseId",
          "type": "uint256"
        }
      ],
      "name": "signLease",
      "outputs": [],
      "stateMutability": "nonpayable",
      "type": "function"
    },
    {
      "inputs": [
        {
          "internalType": "uint256",
          "name": "leaseId",
          "type": "uint256"
        }
      ],
      "name": "payDeposit",
      "outputs": [],
      "stateMutability": "payable",
      "type": "function",
      "payable": true
    },
    {
      "inputs": [
        {
          "internalType": "uint256",
          "name": "leaseId",
          "type": "uint256"
        }
      ],
      "name": "payAnnualRent",
      "outputs": [],
      "stateMutability": "payable",
      "type": "function",
      "payable": true
    },
    {
      "inputs": [
        {
          "internalType": "uint256",
          "name": "leaseId",
          "type": "uint256"
        },
        {
          "internalType": "string",
          "name": "title",
          "type": "string"
        },
        {
          "internalType": "uint256",
          "name": "cost",
          "type": "uint256"
        }
      ],
      "name": "requestRepair",
      "outputs": [
        {
          "internalType": "bytes32",
          "name": "reqId",
          "type": "bytes32"
        }
      ],
      "stateMutability": "nonpayable",
      "type": "function"
    },
    {
      "inputs": [
        {
          "internalType": "uint256",
          "name": "leaseId",
          "type": "uint256"
        },
        {
          "internalType": "bytes32",
          "name": "reqId",
          "type": "bytes32"
        },
        {
          "internalType": "string",
          "name": "status",
          "type": "string"
        }
      ],
      "name": "setRepairStatus",
      "outputs": [],
      "stateMutability": "nonpayable",
      "type": "function"
    },
    {
      "inputs": [
        {
          "internalType": "uint256",
          "name": "leaseId",
          "type": "uint256"
        }
      ],
      "name": "getLease",
      "outputs": [
        {
          "components": [
            {
              "internalType": "uint256",
              "name": "id",
              "type": "uint256"
            },
            {
              "internalType": "address",
              "name": "owner",
              "type": "address"
            },
            {
              "internalType": "address",
              "name": "tenant",
              "type": "address"
            },
            {
              "internalType": "uint256",
              "name": "rentWei",
              "type": "uint256"
            },
            {
              "internalType": "uint256",
              "name": "depositWei",
              "type": "uint256"
            },
            {
              "internalType": "uint256",
              "name": "startUnix",
              "type": "uint256"
            },
            {
              "internalType": "uint256",
              "name": "endUnix",
              "type": "uint256"
            },
            {
              "internalType": "bool",
              "name": "active",
              "type": "bool"
            }
          ],
          "internalType": "struct RENT.Lease",
          "name": "",
          "type": "tuple"
        }
      ],
      "stateMutability": "view",
      "type": "function",
      "constant": true
    }
  ],
  "bytecode": "0x608060405234801561001057600080fd5b50610c03806100206000396000f3fe6080604052600436106100865760003560e01c80638927a106116100595780638927a10614610113578063902238e1146101ca5780639f44657c146101e0578063dcbed18f1461026c578063df6bdfb71461028c57600080fd5b806328cd3f181461008b5780634b14a055146100a0578063698d2e43146100c057806374cdf283146100f3575b600080fd5b61009e610099366004610979565b61029f565b005b3480156100ac57600080fd5b5061009e6100bb3660046109db565b61037f565b3480156100cc57600080fd5b506100e06100db366004610a2e565b61041a565b6040519081526020015b60405180910390f35b3480156100ff57600080fd5b5061009e61010e366004610979565b6104cc565b34801561011f57600080fd5b5061018161012e366004610979565b6001602081905260009182526040909120805491810154600282015460038301546004840154600585015460068601546007909601546001600160a01b0395861696959094169492939192909160ff1688565b604080519889526001600160a01b0397881660208a015295909616948701949094526060860192909252608085015260a084015260c0830152151560e0820152610100016100ea565b3480156101d657600080fd5b506100e060005481565b3480156101ec57600080fd5b506102006101fb366004610979565b610538565b60408051825181526020808401516001600160a01b0390811691830191909152838301511691810191909152606080830151908201526080808301519082015260a0808301519082015260c0808301519082015260e091820151151591810191909152610100016100ea565b34801561027857600080fd5b506100e0610287366004610a81565b610614565b61009e61029a366004610979565b6107f4565b600081815260016020526040902060028101546001600160a01b031633146102e25760405162461bcd60e51b81526004016102d990610ad1565b60405180910390fd5b806004015434146103285760405162461bcd60e51b815260206004820152601060248201526f125b98dbdc9c9958dd08185b5bdd5b9d60821b60448201526064016102d9565b6001810154610340906001600160a01b0316346108df565b6040805134815242602082015283917f056e173e5c3c6d8d46ee71facfb790c32b002c5428f2b2ea5eac45dc7499e0d391015b60405180910390a25050565b6000848152600160208190526040909120908101546001600160a01b031633146103d75760405162461bcd60e51b81526020600482015260096024820152682737ba1037bbb732b960b91b60448201526064016102d9565b847f3f3b54b56cde17025453a44b6031ef46701ba41b51bffc34b2399c64c1bc407285858560405161040b93929190610b1e565b60405180910390a25050505050565b600084815260016020526040812060028101546001600160a01b031633146104545760405162461bcd60e51b81526004016102d990610ad1565b428633878760405160200161046d959493929190610b41565b604051602081830303815290604052805190602001209150857f5d43f25cddfe9d776f038120121d30a775417b537901f29d2786696e5bfd3c4e838787876040516104bb9493929190610b7b565b60405180910390a250949350505050565b600081815260016020526040902060028101546001600160a01b031633146105065760405162461bcd60e51b81526004016102d990610ad1565b60405133815282907ff185b5920efb52f11580e6a164da3f64ce5adeba661fe1cb57ee2e91beae3fda90602001610373565b6105946040518061010001604052806000815260200160006001600160a01b0316815260200160006001600160a01b03168152602001600081526020016000815260200160008152602001600081526020016000151581525090565b5060009081526001602081815260409283902083516101008101855281548152928101546001600160a01b03908116928401929092526002810154909116928201929092526003820154606082015260048201546080820152600582015460a0820152600682015460c082015260079091015460ff16151560e082015290565b60006001600160a01b03861661065e5760405162461bcd60e51b815260206004820152600f60248201526e15195b985b9d081c995c5d5a5c9959608a1b60448201526064016102d9565b60008511801561066e5750600084115b6106ac5760405162461bcd60e51b815260206004820152600f60248201526e496e76616c696420616d6f756e747360881b60448201526064016102d9565b8282116106ee5760405162461bcd60e51b815260206004820152601060248201526f496e76616c6964207363686564756c6560801b60448201526064016102d9565b6000805490806106fd83610ba6565b9091555060408051610100810182528281523360208083018281526001600160a01b038c8116858701818152606087018e8152608088018e815260a089018e815260c08a018e8152600060e08c018181528e825260019a8b90528d82209c518d559851998c0180549a89166001600160a01b03199b8c16179055945160028c0180549190981699169890981790955590516003890155516004880155915160058701559251600686015590516007909401805494151560ff199095169490941790935592519394509284917f3b77e3c3877f3a2ff66020fec8645ac7c1f4700429bf26de77db90ab52f5bfe091a495945050505050565b600081815260016020526040902060028101546001600160a01b0316331461082e5760405162461bcd60e51b81526004016102d990610ad1565b806003015434146108745760405162461bcd60e51b815260206004820152601060248201526f125b98dbdc9c9958dd08185b5bdd5b9d60821b60448201526064016102d9565b600781015460ff166108905760078101805460ff191660011790555b60018101546108a8906001600160a01b0316346108df565b6040805134815242602082015283917f78bb0415cdbaaa0e3d0f658ec3b6b1078853bdce6b1daaef39fd49896dbdd5379101610373565b6000826001600160a01b03168260405160006040518083038185875af1925050503d806000811461092c576040519150601f19603f3d011682016040523d82523d6000602084013e610931565b606091505b50509050806109745760405162461bcd60e51b815260206004820152600f60248201526e151c985b9cd9995c8819985a5b1959608a1b60448201526064016102d9565b505050565b60006020828403121561098b57600080fd5b5035919050565b60008083601f8401126109a457600080fd5b50813567ffffffffffffffff8111156109bc57600080fd5b6020830191508360208285010111156109d457600080fd5b9250929050565b600080600080606085870312156109f157600080fd5b8435935060208501359250604085013567ffffffffffffffff811115610a1657600080fd5b610a2287828801610992565b95989497509550505050565b60008060008060608587031215610a4457600080fd5b84359350602085013567ffffffffffffffff811115610a6257600080fd5b610a6e87828801610992565b9598909750949560400135949350505050565b600080600080600060a08688031215610a9957600080fd5b85356001600160a01b0381168114610ab057600080fd5b97602087013597506040870135966060810135965060800135945092505050565b6020808252600a9082015269139bdd081d195b985b9d60b21b604082015260600190565b81835281816020850137506000828201602090810191909152601f909101601f19169091010190565b838152604060208201526000610b38604083018486610af5565b95945050505050565b8581528460208201526bffffffffffffffffffffffff198460601b1660408201528183605483013760009101605401908152949350505050565b848152606060208201526000610b95606083018587610af5565b905082604083015295945050505050565b600060018201610bc657634e487b7160e01b600052601160045260246000fd5b506001019056fea2646970667358221220a13941905e1a44fc23fa8d61d2692513d55cd668fec3f95fe2ead5b29bb91ac064736f6c63430008180033",
  "immutableReferences": {},
  "source": "// SPDX-License-Identifier: MIT\npragma solidity ^0.8.24;\n\n/// @title RENT - Minimal on-chain lease management with direct owner payouts.\ncontract RENT {\n    struct Lease {\n        uint256 id;\n        address owner;\n        address tenant;\n        uint256 rentWei;\n        uint256 depositWei;\n        uint256 startUnix;\n        uint256 endUnix;\n        bool active;\n    }\n\n    uint256 public nextLeaseId;\n    mapping(uint256 => Lease) public leases;\n\n    event LeaseCreated(uint256 indexed id, address indexed tenant, address indexed owner);\n    event LeaseSigned(uint256 indexed id, address tenant);\n    event DepositPaid(uint256 indexed id, uint256 amount, uint256 time);\n    event AnnualRentPaid(uint256 indexed id, uint256 amount, uint256 time);\n    event RepairRequested(uint256 indexed id, bytes32 reqId, string title, uint256 cost);\n    event RepairUpdated(uint256 indexed id, bytes32 reqId, string status);\n\n    function createLease(\n        address tenant,\n        uint256 rentWei,\n        uint256 depositWei,\n        uint256 startUnix,\n        uint256 endUnix\n    ) external returns (uint256 leaseId) {\n        require(tenant != address(0), \"Tenant required\");\n        require(rentWei > 0 && depositWei > 0, \"Invalid amounts\");\n        require(endUnix > startUnix, \"Invalid schedule\");\n\n        leaseId = nextLeaseId++;\n        leases[leaseId] = Lease({\n            id: leaseId,\n            owner: msg.sender,\n            tenant: tenant,\n            rentWei: rentWei,\n            depositWei: depositWei,\n            startUnix: startUnix,\n            endUnix: endUnix,\n            active: false\n        });\n\n        emit LeaseCreated(leaseId, tenant, msg.sender);\n    }\n\n    function signLease(uint256 leaseId) external {\n        Lease storage lease = leases[leaseId];\n        require(lease.tenant == msg.sender, \"Not tenant\");\n        emit LeaseSigned(leaseId, msg.sender);\n    }\n\n    function payDeposit(uint256 leaseId) external payable {\n        Lease storage lease = leases[leaseId];\n        require(lease.tenant == msg.sender, \"Not tenant\");\n        require(msg.value == lease.depositWei, \"Incorrect amount\");\n        _forward(lease.owner, msg.value);\n        emit DepositPaid(leaseId, msg.value, block.timestamp);\n    }\n\n    function payAnnualRent(uint256 leaseId) external payable {\n        Lease storage lease = leases[leaseId];\n        require(lease.tenant == msg.sender, \"Not tenant\");\n        require(msg.value == lease.rentWei, \"Incorrect amount\");\n        if (!lease.active) {\n            lease.active = true;\n        }\n        _forward(lease.owner, msg.value);\n        emit AnnualRentPaid(leaseId, msg.value, block.timestamp);\n    }\n\n    function requestRepair(uint256 leaseId, string calldata title, uint256 cost) external returns (bytes32 reqId) {\n        Lease storage lease = leases[leaseId];\n        require(lease.tenant == msg.sender, \"Not tenant\");\n        reqId = keccak256(abi.encodePacked(block.timestamp, leaseId, msg.sender, title));\n        emit RepairRequested(leaseId, reqId, title, cost);\n    }\n\n    function setRepairStatus(uint256 leaseId, bytes32 reqId, string calldata status) external {\n        Lease storage lease = leases[leaseId];\n        require(lease.owner == msg.sender, \"Not owner\");\n        emit RepairUpdated(leaseId, reqId, status);\n    }\n\n    function getLease(uint256 leaseId) external view returns (Lease memory) {\n        return leases[leaseId];\n    }\n\n    function _forward(address to, uint256 amount) internal {\n        (bool sent, ) = payable(to).call{value: amount}(\"\");\n        require(sent, \"Transfer failed\");\n    }\n}\n",
  "sourcePath": "/Users/csuftitan/RentalApp/rental-app/contracts/RENT.sol",
  "compiler": {
    "name": "solc",
    "version": "0.8.24+commit.e11b9ed9.Emscripten.clang"
  },
  "schemaVersion": "3.4.16",
  "updatedAt": "2025-11-14T06:34:06.474Z",
  "networkType": "ethereum",
  "devdoc": {
    "kind": "dev",
    "methods": {},
    "title": "RENT - Minimal on-chain lease management with direct owner payouts.",
    "version": 1
  },
  "userdoc": {
    "kind": "user",
    "methods": {},
    "version": 1
  }
}