{
  "contractName": "Repairs",
  "abi": [
    {
      "inputs": [
        {
          "internalType": "address",
          "name": "directoryAddress",
          "type": "address"
        }
      ],
      "stateMutability": "nonpayable",
      "type": "constructor"
    },
    {
      "anonymous": false,
      "inputs": [
        {
          "indexed": true,
          "internalType": "uint256",
          "name": "requestId",
          "type": "uint256"
        },
        {
          "indexed": true,
          "internalType": "uint256",
          "name": "leaseId",
          "type": "uint256"
        },
        {
          "indexed": true,
          "internalType": "address",
          "name": "tenant",
          "type": "address"
        },
        {
          "indexed": false,
          "internalType": "string",
          "name": "title",
          "type": "string"
        },
        {
          "indexed": false,
          "internalType": "string",
          "name": "detail",
          "type": "string"
        }
      ],
      "name": "RepairOpened",
      "type": "event"
    },
    {
      "anonymous": false,
      "inputs": [
        {
          "indexed": true,
          "internalType": "uint256",
          "name": "requestId",
          "type": "uint256"
        },
        {
          "indexed": true,
          "internalType": "uint256",
          "name": "leaseId",
          "type": "uint256"
        },
        {
          "indexed": false,
          "internalType": "string",
          "name": "status",
          "type": "string"
        }
      ],
      "name": "RepairUpdated",
      "type": "event"
    },
    {
      "inputs": [],
      "name": "directory",
      "outputs": [
        {
          "internalType": "contract ILeaseDirectory",
          "name": "",
          "type": "address"
        }
      ],
      "stateMutability": "view",
      "type": "function",
      "constant": true
    },
    {
      "inputs": [],
      "name": "nextRequestId",
      "outputs": [
        {
          "internalType": "uint256",
          "name": "",
          "type": "uint256"
        }
      ],
      "stateMutability": "view",
      "type": "function",
      "constant": true
    },
    {
      "inputs": [],
      "name": "owner",
      "outputs": [
        {
          "internalType": "address",
          "name": "",
          "type": "address"
        }
      ],
      "stateMutability": "view",
      "type": "function",
      "constant": true
    },
    {
      "inputs": [
        {
          "internalType": "uint256",
          "name": "",
          "type": "uint256"
        }
      ],
      "name": "requests",
      "outputs": [
        {
          "internalType": "uint256",
          "name": "leaseId",
          "type": "uint256"
        },
        {
          "internalType": "address",
          "name": "tenant",
          "type": "address"
        },
        {
          "internalType": "string",
          "name": "title",
          "type": "string"
        },
        {
          "internalType": "string",
          "name": "detail",
          "type": "string"
        },
        {
          "internalType": "string",
          "name": "status",
          "type": "string"
        }
      ],
      "stateMutability": "view",
      "type": "function",
      "constant": true
    },
    {
      "inputs": [
        {
          "internalType": "uint256",
          "name": "leaseId",
          "type": "uint256"
        },
        {
          "internalType": "string",
          "name": "title",
          "type": "string"
        },
        {
          "internalType": "string",
          "name": "detail",
          "type": "string"
        }
      ],
      "name": "openRequest",
      "outputs": [],
      "stateMutability": "nonpayable",
      "type": "function"
    },
    {
      "inputs": [
        {
          "internalType": "uint256",
          "name": "leaseId",
          "type": "uint256"
        },
        {
          "internalType": "uint256",
          "name": "requestId",
          "type": "uint256"
        },
        {
          "internalType": "string",
          "name": "status",
          "type": "string"
        }
      ],
      "name": "setStatus",
      "outputs": [],
      "stateMutability": "nonpayable",
      "type": "function"
    }
  ],
  "bytecode": "0x608060405234801561001057600080fd5b50604051610cde380380610cde83398101604081905261002f9161005d565b600080546001600160a01b039092166001600160a01b0319928316179055600180549091163317905561008d565b60006020828403121561006f57600080fd5b81516001600160a01b038116811461008657600080fd5b9392505050565b610c428061009c6000396000f3fe608060405234801561001057600080fd5b50600436106100625760003560e01c80636a84a9851461006757806381d12c58146100835780638da5cb5b146100a757806397564081146100d2578063c41c2f24146100e7578063d41828b4146100fa575b600080fd5b61007060025481565b6040519081526020015b60405180910390f35b6100966100913660046106e5565b61010d565b60405161007a959493929190610744565b6001546100ba906001600160a01b031681565b6040516001600160a01b03909116815260200161007a565b6100e56100e03660046107e9565b6102de565b005b6000546100ba906001600160a01b031681565b6100e561010836600461083c565b61044f565b60036020526000908152604090208054600182015460028301805492936001600160a01b039092169261013f906108b6565b80601f016020809104026020016040519081016040528092919081815260200182805461016b906108b6565b80156101b85780601f1061018d576101008083540402835291602001916101b8565b820191906000526020600020905b81548152906001019060200180831161019b57829003601f168201915b5050505050908060030180546101cd906108b6565b80601f01602080910402602001604051908101604052809291908181526020018280546101f9906108b6565b80156102465780601f1061021b57610100808354040283529160200191610246565b820191906000526020600020905b81548152906001019060200180831161022957829003601f168201915b50505050509080600401805461025b906108b6565b80601f0160208091040260200160405190810160405280929190818152602001828054610287906108b6565b80156102d45780601f106102a9576101008083540402835291602001916102d4565b820191906000526020600020905b8154815290600101906020018083116102b757829003601f168201915b5050505050905085565b60008054604051635e8a6f4b60e11b8152600481018790528692916001600160a01b03169063bd14de969060240160c060405180830381865afa158015610329573d6000803e3d6000fd5b505050506040513d601f19601f8201168201806040525081019061034d919061090c565b50505050509050806001600160a01b0316336001600160a01b0316146103ac5760405162461bcd60e51b815260206004820152600f60248201526e2737ba103632b0b9b29037bbb732b960891b60448201526064015b60405180910390fd5b6000858152600360205260409020805487146103fb5760405162461bcd60e51b815260206004820152600e60248201526d098cac2e6ca40dad2e6dac2e8c6d60931b60448201526064016103a3565b6004810161040a8587836109cb565b5086867ffbfc97e45a908aa990985b057bdf38a4283b92fed52b89c06055a47063bf9147878760405161043e929190610ab5565b60405180910390a350505050505050565b60005460405163472969a960e01b81526004810187905286916001600160a01b03169063472969a990602401602060405180830381865afa158015610498573d6000803e3d6000fd5b505050506040513d601f19601f820116820180604052508101906104bc9190610ad1565b6001600160a01b0316336001600160a01b03161461050f5760405162461bcd60e51b815260206004820152601060248201526f139bdd081b19585cd9481d195b985b9d60821b60448201526064016103a3565b8361054d5760405162461bcd60e51b815260206004820152600e60248201526d151a5d1b19481c995c5d5a5c995960921b60448201526064016103a3565b6001600260008282546105609190610af3565b925050819055506040518060a00160405280878152602001336001600160a01b0316815260200186868080601f016020809104026020016040519081016040528093929190818152602001838380828437600092019190915250505090825250604080516020601f87018190048102820181019092528581529181019190869086908190840183828082843760009201829052509385525050604080518082018252600481526337b832b760e11b60208083019190915294850152600280548452600385529281902085518155938501516001850180546001600160a01b0319166001600160a01b0390921691909117905584015191830191610664915082610b1a565b50606082015160038201906106799082610b1a565b506080820151600482019061068e9082610b1a565b50905050336001600160a01b0316866002547fe8e94cf910bad5be9e6ad132a0278e17790fb65af1d16532d184338fa271d367888888886040516106d59493929190610bda565b60405180910390a4505050505050565b6000602082840312156106f757600080fd5b5035919050565b6000815180845260005b8181101561072457602081850181015186830182015201610708565b506000602082860101526020601f19601f83011685010191505092915050565b8581526001600160a01b038516602082015260a06040820181905260009061076e908301866106fe565b828103606084015261078081866106fe565b9050828103608084015261079481856106fe565b98975050505050505050565b60008083601f8401126107b257600080fd5b50813567ffffffffffffffff8111156107ca57600080fd5b6020830191508360208285010111156107e257600080fd5b9250929050565b600080600080606085870312156107ff57600080fd5b8435935060208501359250604085013567ffffffffffffffff81111561082457600080fd5b610830878288016107a0565b95989497509550505050565b60008060008060006060868803121561085457600080fd5b85359450602086013567ffffffffffffffff8082111561087357600080fd5b61087f89838a016107a0565b9096509450604088013591508082111561089857600080fd5b506108a5888289016107a0565b969995985093965092949392505050565b600181811c908216806108ca57607f821691505b6020821081036108ea57634e487b7160e01b600052602260045260246000fd5b50919050565b80516001600160a01b038116811461090757600080fd5b919050565b60008060008060008060c0878903121561092557600080fd5b61092e876108f0565b955061093c602088016108f0565b945060408701519350606087015192506080870151915060a087015190509295509295509295565b634e487b7160e01b600052604160045260246000fd5b601f8211156109c6576000816000526020600020601f850160051c810160208610156109a35750805b601f850160051c820191505b818110156109c2578281556001016109af565b5050505b505050565b67ffffffffffffffff8311156109e3576109e3610964565b6109f7836109f183546108b6565b8361097a565b6000601f841160018114610a2b5760008515610a135750838201355b600019600387901b1c1916600186901b178355610a85565b600083815260209020601f19861690835b82811015610a5c5786850135825560209485019460019092019101610a3c565b5086821015610a795760001960f88860031b161c19848701351681555b505060018560011b0183555b5050505050565b81835281816020850137506000828201602090810191909152601f909101601f19169091010190565b602081526000610ac9602083018486610a8c565b949350505050565b600060208284031215610ae357600080fd5b610aec826108f0565b9392505050565b80820180821115610b1457634e487b7160e01b600052601160045260246000fd5b92915050565b815167ffffffffffffffff811115610b3457610b34610964565b610b4881610b4284546108b6565b8461097a565b602080601f831160018114610b7d5760008415610b655750858301515b600019600386901b1c1916600185901b1785556109c2565b600085815260208120601f198616915b82811015610bac57888601518255948401946001909101908401610b8d565b5085821015610bca5787850151600019600388901b60f8161c191681555b5050505050600190811b01905550565b604081526000610bee604083018688610a8c565b8281036020840152610c01818587610a8c565b97965050505050505056fea2646970667358221220fee1f474c26bf1cfd5f3eb9c5af46b7708ee446bfd4e74707007b7d9f94cfef364736f6c63430008180033",
  "immutableReferences": {},
  "source": "// SPDX-License-Identifier: MIT\npragma solidity ^0.8.24;\n\ninterface ILeaseDirectory {\n    function leaseTenant(uint256 leaseId) external view returns (address);\n    function agreements(uint256 leaseId)\n        external\n        view\n        returns (address owner, address tenant, uint256 rentWei, uint256 startUnix, uint256 endUnix, bytes32 termsHash);\n}\n\n/// @title Repairs - Emits lifecycle events for repair requests per lease.\ncontract Repairs {\n    struct RepairRequest {\n        uint256 leaseId;\n        address tenant;\n        string title;\n        string detail;\n        string status;\n    }\n\n    ILeaseDirectory public directory;\n    address public owner;\n    uint256 public nextRequestId;\n\n    mapping(uint256 => RepairRequest) public requests;\n\n    event RepairOpened(uint256 indexed requestId, uint256 indexed leaseId, address indexed tenant, string title, string detail);\n    event RepairUpdated(uint256 indexed requestId, uint256 indexed leaseId, string status);\n\n    constructor(address directoryAddress) {\n        directory = ILeaseDirectory(directoryAddress);\n        owner = msg.sender;\n    }\n\n    modifier onlyLeaseTenant(uint256 leaseId) {\n        require(msg.sender == directory.leaseTenant(leaseId), \"Not lease tenant\");\n        _;\n    }\n\n    modifier onlyLeaseOwner(uint256 leaseId) {\n        (address leaseOwner, , , , , ) = directory.agreements(leaseId);\n        require(msg.sender == leaseOwner, \"Not lease owner\");\n        _;\n    }\n\n    function openRequest(uint256 leaseId, string calldata title, string calldata detail) external onlyLeaseTenant(leaseId) {\n        require(bytes(title).length > 0, \"Title required\");\n        nextRequestId += 1;\n        requests[nextRequestId] = RepairRequest({\n            leaseId: leaseId,\n            tenant: msg.sender,\n            title: title,\n            detail: detail,\n            status: \"open\"\n        });\n        emit RepairOpened(nextRequestId, leaseId, msg.sender, title, detail);\n    }\n\n    function setStatus(uint256 leaseId, uint256 requestId, string calldata status) external onlyLeaseOwner(leaseId) {\n        RepairRequest storage req = requests[requestId];\n        require(req.leaseId == leaseId, \"Lease mismatch\");\n        req.status = status;\n        emit RepairUpdated(requestId, leaseId, status);\n    }\n}\n",
  "sourcePath": "/Users/csuftitan/RentalApp/rental-app/contracts/Repairs.sol",
  "compiler": {
    "name": "solc",
    "version": "0.8.24+commit.e11b9ed9.Emscripten.clang"
  },
  "schemaVersion": "3.4.16",
  "updatedAt": "2025-11-14T06:34:06.483Z",
  "networkType": "ethereum",
  "devdoc": {
    "kind": "dev",
    "methods": {},
    "title": "Repairs - Emits lifecycle events for repair requests per lease.",
    "version": 1
  },
  "userdoc": {
    "kind": "user",
    "methods": {},
    "version": 1
  }
}